:020000040800F2
:1000000000000220B15C0008015D0008015D0008ED
:10001000015D0008015D0008015D000800000000AE
:10002000000000000000000000000000015D00086A
:10003000015D000800000000015D00089158000803
:10004000015D0008015D0008015D0008015D000818
:10005000015D0008015D0008015D0008015D000808
:10006000015D0008015D0008015D0008015D0008F8
:10007000015D0008015D0008015D0008015D0008E8
:10008000015D0008015D0008015D0008015D0008D8
:10009000015D0008015D0008015D0008015D0008C8
:1000A000015D0008015D0008015D0008015D0008B8
:1000B000015D0008015D0008015D0008015D0008A8
:1000C000015D0008015D0008015D0008015D000898
:1000D000015D0008A1580008015D0008AD58000846
:1000E000015D0008015D0008015D0008015D000878
:1000F000015D0008015D0008015D0008015D000868
:10010000015D0008015D0008015D0008015D000857
:10011000015D0008015D0008015D0008015D000847
:10012000015D0008015D0008015D0008015D000837
:10013000015D00080000000000000000015D0008F3
:10014000015D0008015D0008015D0008015D000817
:10015000015D0008015D0008015D0008015D000807
:10016000015D0008015D0008015D0008015D0008F7
:10017000015D0008015D0008015D0008000000004D
:1001800000000000015D0008000000000000000009
:10019000015D00080000000000000000015D000893
:1001A000000000000000000000000000015D0008E9
:1001B000015D0008015D0008015D0008015D0008A7
:0401C000015D0008D5
:1001C80010B5054C237833B9044B13B10448AFF389
:1001D80000800123237010BD600200200000000091
:1001E8000C77000808B5034B1BB103490348AFF36C
:1001F800008008BD00000000640200200C770008A1
:1002080081F0004102E000BF83F0004330B54FEABF
:1002180041044FEA430594EA050F08BF90EA020F2C
:100228001FBF54EA000C55EA020C7FEA645C7FEABF
:10023800655C00F0E2804FEA5454D4EB5555B8BFE2
:100248006D420CDD2C4480EA020281EA030382EA53
:10025800000083EA010180EA020281EA0303362DE5
:1002680088BF30BD11F0004F4FEA01314FF4801CB8
:100278004CEA113102D0404261EB410113F0004FCA
:100288004FEA03334CEA133302D0524263EB430381
:1002980094EA050F00F0A780A4F10104D5F1200E1F
:1002A8000DDB02FA0EFC22FA05F2801841F100017A
:1002B80003FA0EF2801843FA05F359410EE0A5F14E
:1002C80020050EF1200E012A03FA0EFC28BF4CF07F
:1002D800020C43FA05F3C01851EBE37101F0004535
:1002E80007D54FF0000EDCF1000C7EEB00006EEB42
:1002F8000101B1F5801F1BD3B1F5001F0CD34908CC
:100308005FEA30004FEA3C0C04F101044FEA445222
:1003180012F5800F80F09A80BCF1004F08BF5FEAA9
:10032800500C50F1000041EB045141EA050130BD89
:100338005FEA4C0C404141EB010111F4801FA4F12C
:100348000104E9D191F0000F04BF01460020B1FA81
:1003580081F308BF2033A3F10B03B3F120020CDAB9
:100368000C3208DD02F1140CC2F10C0201FA0CF097
:1003780021FA02F10CE002F11402D8BFC2F1200CFC
:1003880001FA02F120FA0CFCDCBF41EA0C019040B2
:10039800E41AA2BF01EB0451294330BD6FEA0404FB
:1003A8001F3C1CDA0C340EDC04F11404C4F12002E6
:1003B80020FA04F001FA02F340EA030021FA04F3F8
:1003C80045EA030130BDC4F10C04C4F1200220FA4F
:1003D80002F001FA04F340EA0300294630BD21FA8D
:1003E80004F0294630BD94F0000F83F4801306BF53
:1003F80081F480110134013D4EE77FEA645C18BF47
:100408007FEA655C29D094EA050F08BF90EA020FDD
:1004180005D054EA000C04BF1946104630BD91EAD5
:10042800030F1EBF0021002030BD5FEA545C05D1D8
:100438004000494128BF41F0004130BD14F5800417
:100448003CBF01F5801130BD01F0004545F0FE418B
:1004580041F470014FF0000030BD7FEA645C1ABFC0
:10046800194610467FEA655C1CBF0B46024650EAF7
:10047800013406BF52EA033591EA030F41F4002123
:1004880030BD00BF90F0000F04BF0021704730B5A9
:100498004FF4806404F132044FF000054FF000017E
:1004A80050E700BF90F0000F04BF0021704730B53F
:1004B8004FF4806404F1320410F0004548BF404214
:1004C8004FF000013EE700BF42004FEAE2014FEA69
:1004D80031014FEA02701FBF12F07F4393F07F4F44
:1004E80081F06051704792F0000F14BF93F07F4F76
:1004F800704730B54FF4607401F0004521F00041B9
:1005080020E700BF50EA010208BF704730B54FF03E
:1005180000050AE050EA010208BF704730B511F043
:10052800004502D5404261EB41014FF4806404F17B
:1005380032045FEA915C3FF4DCAE4FF003025FEAFD
:10054800DC0C18BF03325FEADC0C18BF033202EB85
:10055800DC02C2F1200300FA03FC20FA02F001FADF
:1005680003FE40EA0E0021FA02F11444C1E600BF7E
:1005780070B54FF0FF0C4CF4E06C1CEA11541DBF31
:100588001CEA135594EA0C0F95EA0C0F00F0DEF8FC
:100598002C4481EA030621EA4C5123EA4C5350EAE1
:1005A800013518BF52EA033541F4801143F4801332
:1005B80038D0A0FB02CE4FF00005E1FB02E506F0C3
:1005C8000042E0FB03E54FF00006E1FB03569CF018
:1005D800000F18BF4EF0010EA4F1FF04B6F5007F1E
:1005E80064F5407404D25FEA4E0E6D4146EB060690
:1005F80042EAC62141EA55514FEAC52040EA5E5019
:100608004FEACE2EB4F1FD0C88BFBCF5E06F1ED8C2
:10061800BEF1004F08BF5FEA500E50F1000041EBF9
:10062800045170BD06F0004646EA010140EA0200A6
:1006380081EA0301B4EB5C04C2BFD4EB0C0541EAC8
:10064800045170BD41F480114FF0000E013C00F3DD
:10065800AB8014F1360FDEBF002001F0004170BD01
:10066800C4F10004203C35DA0C341BDC04F114041A
:10067800C4F1200500FA05F320FA04F001FA05F2A6
:1006880040EA020001F0004221F0004110EBD37073
:1006980021FA04F642EB06015EEA430E08BF20EA9F
:1006A800D37070BDC4F10C04C4F1200500FA04F342
:1006B80020FA05F001FA04F240EA020001F00041D4
:1006C80010EBD37041F100015EEA430E08BF20EA47
:1006D800D37070BDC4F1200500FA05F24EEA020E8F
:1006E80020FA04F301FA05F243EA020321FA04F0BE
:1006F80001F0004121FA04F220EA020000EBD37075
:100708005EEA430E08BF20EAD37070BD94F0000F74
:100718000FD101F00046400041EB010111F4801FA8
:1007280008BF013CF7D041EA060195F0000F18BF59
:10073800704703F00046520043EB030313F4801F95
:1007480008BF013DF7D043EA0603704794EA0C0F4F
:100758000CEA135518BF95EA0C0F0CD050EA410665
:1007680018BF52EA4306D1D181EA030101F00041E2
:100778004FF0000070BD50EA410606BF104619460A
:1007880052EA430619D094EA0C0F02D150EA013616
:1007980013D195EA0C0F05D152EA03361CBF104657
:1007A80019460AD181EA030101F0004141F0FE41F6
:1007B80041F470014FF0000070BD41F0FE4141F47A
:1007C800780170BD70B54FF0FF0C4CF4E06C1CEA7A
:1007D80011541DBF1CEA135594EA0C0F95EA0C0F2F
:1007E80000F0A7F8A4EB050481EA030E52EA0335EA
:1007F8004FEA013100F088804FEA03334FF080550B
:1008080045EA131343EA12634FEA022245EA111537
:1008180045EA10654FEA00260EF000419D4208BFE8
:10082800964244F1FD0404F5407402D25B084FEA95
:100838003202B61A65EB03055B084FEA32024FF441
:1008480080104FF4002CB6EB020E75EB030E22BF9E
:10085800B61A754640EA0C005B084FEA3202B6EB5E
:10086800020E75EB030E22BFB61A754640EA5C000D
:100878005B084FEA3202B6EB020E75EB030E22BF9D
:10088800B61A754640EA9C005B084FEA3202B6EB9E
:10089800020E75EB030E22BFB61A754640EADC005D
:1008A80055EA060E18D04FEA051545EA16754FEABF
:1008B80006164FEAC30343EA52734FEAC2025FEADD
:1008C8001C1CC0D111F4801F0BD141EA00014FF06C
:1008D80000004FF0004CB6E711F4801F04BF01433D
:1008E8000020B4F1FD0C88BFBCF5E06F3FF6AFAE59
:1008F800B5EB030C04BFB6EB020C5FEA500C50F1E9
:10090800000041EB045170BD0EF0004E4EEA11316B
:1009180014EB5C04C2BFD4EB0C0541EA045170BD72
:1009280041F480114FF0000E013C90E645EA060EB6
:100938008DE60CEA135594EA0C0F08BF95EA0C0FE4
:100948003FF43BAF94EA0C0F0AD150EA01347FF42C
:1009580034AF95EA0C0F7FF425AF104619462CE703
:1009680095EA0C0F06D152EA03353FF4FDAE104666
:10097800194622E750EA410618BF52EA43067FF4B7
:10098800C5AE50EA41047FF40DAF52EA43057FF447
:10099800EBAE12E74FF0FF3C06E000BF4FF0010C52
:1009A80002E000BF4FF0010C4DF804CD4FEA410CB6
:1009B8007FEA6C5C4FEA430C18BF7FEA6C5C1BD083
:1009C80001B050EA410C0CBF52EA430C91EA030F04
:1009D80002BF90EA020F0020704710F1000F91EA61
:1009E800030F58BF994208BF90422CBFD8176FEA2F
:1009F800E37040F0010070474FEA410C7FEA6C5CFD
:100A080002D150EA013C07D14FEA430C7FEA6C5C03
:100A1800D6D152EA033CD3D05DF8040B704700BF2F
:100A28008446104662468C461946634600E000BF7D
:100A380001B5FFF7B7FF002848BF10F1000F01BD4F
:100A48004DF808EDFFF7F4FF0CBF012000205DF81A
:100A580008FB00BF4DF808EDFFF7EAFF34BF01209F
:100A680000205DF808FB00BF4DF808EDFFF7E0FF38
:100A780094BF012000205DF808FB00BF4DF808ED89
:100A8800FFF7CEFF94BF012000205DF808FB00BFF0
:100A98004DF808EDFFF7C4FF34BF012000205DF8D2
:100AA80008FB00BF4FEA410C7FEA6C5C02D150EAB8
:100AB800013C0AD14FEA430C7FEA6C5C02D152EA4E
:100AC800033C02D14FF0000070474FF0010070471F
:100AD8004FEA410212F5001215D211D56FF478735E
:100AE800B3EB625212D94FEAC12343F0004343EA01
:100AF800505311F0004F23FA02F018BF40427047DC
:100B08004FF00000704750EA013005D111F0004065
:100B180008BF6FF0004070474FF00000704700BFFB
:100B28004A0011D212F5001211D20DD56FF4787364
:100B3800B3EB62520ED44FEAC12343F0004343EAB9
:100B4800505323FA02F070474FF00000704750EA04
:100B5800013002D14FF0FF3070474FF0000070476E
:100B68004FEA4102B2F1E04324BFB3F5001CDCF1C7
:100B7800FE5C0DD901F0004C4FEAC0024CEA5070FF
:100B8800B2F1004F40EB830008BF20F0010070472E
:100B980011F0804F21D113F13872BCBF01F0004031
:100BA800704741F480114FEA5252C2F11802C2F163
:100BB800200C10FA0CF320FA02F018BF40F00100E4
:100BC8004FEAC1234FEAD32303FA0CFC40EA0C0096
:100BD80023FA02F34FEA4303CCE77FEA625307D1D3
:100BE80050EA01331EBF4FF0FE4040F4400070470A
:100BF80001F0004040F0FE4040F40000704700BFA4
:100C080053B94AB9002908BF00281CBF4FF0FF316B
:100C18004FF0FF3000F0B6B9ADF1080C6DE904CE25
:100C280000F042F8DDF804E0DDE9022304B0704783
:100C380038B50022002304460D46FFF70BFF28B9FC
:100C480020462946BDE8384000F00AB8204605F19C
:100C5800004100F005F8404261EB410138BD00BF9A
:100C6800D0B500220E4B06460F46FFF781FCFFF772
:100C780057FF0446FFF706FC00220A4BFFF778FCF3
:100C880002460B4630463946FFF7BEFAFFF748FFE3
:100C98002346002242EA000210461946D0BD00BF92
:100CA8000000F03D0000F0412DE9F0478C460D466C
:100CB8000446089E002B51D18A4217466DD9B2FAD4
:100CC80082FEBEF1000F0BD0CEF1200C01FA0EF51A
:100CD80020FA0CFC02FA0EF74CEA050C00FA0EF4A6
:100CE8004FEA174A250CBCFBFAF81FFA87F90AFBEA
:100CF80018CC45EA0C4508FB09F3AB420AD9ED19B3
:100D080008F1FF3280F02381AB4240F22081A8F144
:100D180002083D44ED1AA4B2B5FBFAF00AFB1055DF
:100D280044EA054400FB09F9A14509D9E41900F191
:100D3800FF3380F00A81A14540F2078102383C4424
:100D4800A4EB090440EA08400021002E61D024FAEF
:100D58000EF4002334607360BDE8F0878B4207D936
:100D6800002E54D0002186E821000846BDE8F0870F
:100D7800B3FA83F1002940F08E80AB4202D382425D
:100D880000F2FA80841A65EB03050120AC46002EB8
:100D98003FD086E81010BDE8F08712B90127B7FBED
:100DA800F2F7B7FA87FEBEF1000F34D1EB1B3A0C0D
:100DB8001FFA87FC0121B3FBF2F8250C02FB18335C
:100DC80045EA03450CFB08F3AB4207D9ED1908F1D6
:100DD800FF3002D2AB4200F2D1808046ED1AA3B2B6
:100DE800B5FBF2F002FB105543EA05440CFB00FC8E
:100DF800A44507D9E41900F1FF3302D2A44500F253
:100E0800B8801846A4EB0C0440EA08409DE7314638
:100E18003046BDE8F087CEF1200405FA0EF307FA54
:100E28000EF720FA04F83A0C25FA04F448EA030805
:100E3800B4FBF2F14FEA184502FB11441FFA87FC94
:100E480045EA044501FB0CF3AB4200FA0EF409D95C
:100E5800ED1901F1FF3080F08A80AB4240F28780C3
:100E680002393D44EB1A1FFA88F5B3FBF2F002FB96
:100E7800103345EA034500FB0CF3AB4207D9ED19E3
:100E880000F1FF386FD2AB426DD902383D44EB1AFE
:100E980040EA01418FE7C1F1200722FA07F88B40A9
:100EA80005FA01F448EA030320FA07FE4FEA134C57
:100EB800FD404EEA040EB5FBFCF94FEA1E440CFB5C
:100EC80019551FFA83F844EA054509FB08F4AC42B2
:100ED80002FA01F200FA01FA08D9ED1809F1FF3017
:100EE80043D2AC4241D9A9F102091D442D1B1FFA76
:100EF8008EFEB5FBFCF00CFB10554EEA054400FBDA
:100F080008F8A04507D9E41800F1FF3529D2A04513
:100F180027D902381C4440EA0940A4EB0804A0FB86
:100F280002894C45C6464D4615D312D056B1BAEB88
:100F38000E0364EB050404FA07F7CB401F43CC40CB
:100F4800376074600021BDE8F0871846F8E69046DF
:100F5800E0E6C245EAD2B8EB020E69EB03050138B8
:100F6800E4E72846D7E7404691E78146BEE70146D1
:100F780078E702383C4445E7084608E7A8F1020844
:100F88003D442BE7704700BF38B50E4A0E4B054667
:100F980018784FF47A73B3FBF0F31068B0FBF3F0F2
:100FA80000F0A8F8044658B90F2D09D8024629467A
:100FB8004FF0FF3000F05EF8044B20461D6038BD4E
:100FC800012038BD8400002000000020040000201B
:100FD80008B50B4B1A6842F400721A601A6842F49A
:100FE80080621A601A6842F480721A60032000F066
:100FF8002FF80020FFF7C8FF04F0FEFB002008BD13
:10100800003C0240034A044B11681B780B441360F0
:10101800704700BFC002002000000020014B186884
:10102800704700BFC002002038B50446FFF7F6FF3E
:10103800631C1CBF054B1B78054618BFE418FFF757
:10104800EDFF401B8442FAD838BD00BF00000020E5
:10105800074AD36823F4E0631B041B0C43F0BF6307
:10106800000243F4003300F4E0600343D3607047A8
:1010780000ED00E0174B30B5DC68C4F30224C4F17E
:101088000703251D042B28BF0423062D4FF0010557
:1010980005FA03F303F1FF338CBF033C0024194026
:1010A800A14005FA04F4013C2240002842EA01026A
:1010B8004FEA0212AFBF00F1604000F00F00064B8C
:1010C800D2B2A5BF00F56140D2B21A5480F800230D
:1010D80030BD00BF00ED00E014ED00E0420901233F
:1010E80000F01F0003FA00F0014B43F8220070479C
:1010F80000E100E00138B0F1807F0AD2064B074AD0
:101108005860F02182F823100020072298601A60A6
:1011180070470120704700BF10E000E000ED00E0DC
:10112800044B1A6804280CBF42F0040222F004029F
:101138001A60704710E000E0704708B5FFF7FCFF41
:1011480008BD90F83530022B03D080234365012079
:1011580070470268052380F83530136823F00103CF
:1011680013600020704700002DE9F04F85B00B6830
:10117800DFF8A081654ADFF8A091019300234FF0C2
:10118800010E019C0EFA03FE0EEA0406B64540F075
:10119800AA804C6824F01007022F16D14FEAD30A10
:1011A80000EB8A0A03F0070BDAF820504FEA8B0BA2
:1011B8004FF00F0C0CFA0BFC25EA0C0C0D6905FA24
:1011C8000BF545EA0C05CAF820504FEA430A0325F7
:1011D800D0F800B005FA0AF5ED4304F0030C0BEA69
:1011E800050B0CFA0AFC013F4CEA0B0C012FC0F866
:1011F80000C011D8876807EA050BCF6807FA0AFC10
:101208004CEA0B078760476827EA0E0EC4F30017FD
:101218009F4047EA0E074760C7683D408F6807FA56
:101228000AF73D43C560E5005DD54FF0000BCDF8EA
:101238000CB0D8F84470364D47F48047C8F844706D
:10124800D8F8447007F480470397039F23F00307F7
:1012580007F1804707F59C3703F0030CD7F808A07F
:101268004FEA8C0C4FF00F0E0EFA0CFEA8422AEA39
:101278000E0E3FD005F58065A8423DD005F5806586
:10128800A8423BD005F58065A84239D005F58065B0
:10129800A84237D0484537D005F50065A84214BFA5
:1012A8000725062505FA0CF545EA0E05BD60156803
:1012B800F74314F4803F0CBF3D4035431560556833
:1012C80014F4003F0CBF3D4035435560956814F455
:1012D800801F0CBF3D4035439560D568A40254BFBC
:1012E8003D403543D5600133102B7FF448AF05B03E
:1012F800BDE8F08F5D46D5E70125D3E70225D1E7A4
:101308000325CFE70425CDE70525CBE7003C0140C1
:101318000000024000380240001402400AB1816116
:1013280070470904FBE70268536913F480630DD022
:101338006FF4806353610423036420220023036352
:1013480080F83C3080F83D200120704718467047EF
:101358002DE9F843044617469946C1F307488EB26B
:101368002568B8F1010F0CBF6B69AB6936EA030356
:1013780014BF0120002008B9BDE8F8836B695A053D
:1013880012D52B6843F400732B606FF480636B6194
:101398000423236420220023236384F83C3084F848
:1013A8003D200120BDE8F8837B1CD9D04FB900232C
:1013B8002022236384F83C3084F83D200320BDE8D4
:1013C800F883FFF72BFEA0EB09008742C8D2EEE7AF
:1013D8002DE9F843089E044690461F46C1F3074985
:1013E8008DB22368B9F1010F0CBF5B699B6935EABF
:1013F80003030CBF01230023434502D00020BDE8AE
:10140800F8837B1CEDD05FB900232022236384F886
:101418003C3084F83D20032084F83E30BDE8F88352
:10142800FFF7FCFD801B8742DBD2EDE770B5044671
:101438000D46164623685B691B0601D5002070BD62
:101448002046FFF770FFA8B96A1CF3D065B9236C72
:1014580043F02003236420220023236384F83C30D4
:1014680084F83D20032070BDFFF7D8FD801B85421E
:10147800E0D2ECE7012070BD2DE9FF4198460368F2
:101488000B9D16461A6842F480621A601A6842F484
:1014980080721A600F4600950A9B00224FF00111D6
:1014A8000446FFF795FF80B923682F49FFB207F07C
:1014B800FE021A6120462B460A9AFFF749FF40B1FF
:1014C800236C042B01D1012000E0032004B0BDE807
:1014D800F081236803905A6903929B6903932A4613
:1014E8000A99039B2046FFF7A1FF40B1236C042B08
:1014F800EBD12268136843F400731360E3E7B8F193
:10150800010F236824D1F6B21E612A460A992046A3
:10151800FFF78CFF02460028E8D121680B6843F4E6
:1015280080730B60204600950A9B4FF00111FFF76E
:101538004FFF0028C9D123680A9A0B4947F00107D1
:101548001F6120462B46FFF703FF0028B8D1BDE7EF
:10155800320A1A610A992A462046FFF767FF0028CF
:10156800C4D12368CFE700BF0200010070B504466C
:101578000D4616462068436913F0400301D0002049
:1015880070BD4269D2060BD56FF01002426120226D
:10159800236484F83C302363012084F83D2070BD27
:1015A8005DB9236C43F020032364202384F83D3085
:1015B800002384F83C30032070BDFFF72FFD801B0B
:1015C8008542D7D2EDE770B504460D461646236826
:1015D8005B695B0701D5002070BD2046FFF7A3FEBD
:1015E800A8B96A1CF3D065B9236C43F020032364BF
:1015F80020220023236384F83C3084F83D20032014
:1016080070BDFFF70BFD801B8542E0D2ECE701209F
:1016180070BD000070B50446002862D090F83D30D7
:1016280003F0FF021BB980F83C2004F03FF8226861
:101638002D4E2E4D242384F83D30136823F00103EA
:10164800136000F08DFC63682268B0FBF5F5B342C7
:1016580084BF4FF496716943556091BF691C4FF47C
:101668007A75B1FBF5F10131B342116221D85B0003
:10167800B0FBF3F0C0F30B03032B98BF0420216ADF
:10168800E369D0610B431360E16823690B439360FE
:10169800A16963690B43D360136843F001031360C6
:1016A80000202023206484F83D30206384F83E0025
:1016B80070BDA16849B903EB4303B0FBF3F0C0F375
:1016C8000B0363B140F40040D9E719214B43B0FB49
:1016D800F3F0C0F30B0313B140F44040CFE701200F
:1016E800CDE7012070BD00BFA086010040420F0079
:1016F8002DE9FF4104461F460D469046FFF78EFC34
:1017080094F83D30202B064604D00225284604B024
:10171800BDE8F0810090192301225D492046FFF7BA
:1017280057FE0028F1D194F83C30012BEDD001236D
:1017380084F83C3023681A68D2075EBF1A6842F002
:1017480001021A601A6822F400621A60212284F8E1
:101758003D20102284F83E2000222264A2F5803227
:101768006785E262628D2285E26AC4F82480042AD1
:1017780004D0012A02D012F5803F04D11A6842F43D
:1017880080721A6002E0226B122AF7D000960A9B38
:1017980000224FF001112046FFF71AFE28BB2369EB
:1017A8002268B3F5804F12D105F0FE051561334666
:1017B8000A9A38492046FFF7CBFD0546A0B92368A9
:1017C80003905A6903929B690393039B50E0EB11C2
:1017D80003F0060343F0F00313612F490A9A3346D6
:1017E8002046FFF7B5FD48B1236C236C042B4FF05E
:1017F800000307D184F83C30012587E72368EDB260
:101808001D61D4E784F83C3003257FE732460A9906
:101818002046FFF70BFE40B1236C042BF4D122685D
:10182800136843F400731360E6E7616A2068228D49
:101838004B1C63620B780361638D013B9BB263852C
:101848004769531E9BB27F0723850AD54BB18B1C72
:1018580063624B780361638D013B9BB2023A6385F7
:10186800228532460A992046FFF7ADFE0028D3D1DB
:10187800238D002BCAD121680A6842F400720A60DD
:10188800202284F83D2084F83C3084F83E303DE73F
:101898000200100002000100080001002DE9F043D9
:1018A800044689B098460D469146109FFFF7B6FB4F
:1018B80094F83D30202B064604D00225284609B06E
:1018C800BDE8F0830090192301229C492046FFF7C8
:1018D8007FFD0028F1D194F83C30012BEDD0012395
:1018E80084F83C3023681A68D2075EBF1A6842F051
:1018F80001021A601A6822F400621A60222284F82F
:101908003D20102284F83E2000222264A2F5803275
:10191800A4F82A80E262628D2285E26A1968C4F816
:10192800249041F48061042A196004D0012A02D06D
:1019380012F5803F04D11A6842F480721A6002E0FE
:10194800226B112AF7D000963B4600224FF0011176
:101958002046FFF73DFD00284AD12369B3F5804FA3
:10196800236836D145F00105EDB21D6133463A468C
:1019780073492046FFF7ECFC0546002837D1228D35
:101988002368002A66D0012A77D11A6822F4806277
:101998001A6004955A6904929A690492049A1A681A
:1019A80042F400721A60DFF8A081238D002B5BD00F
:1019B800032B00F2CB80012B7AD1324639462046E0
:1019C800FFF7D4FD002800F09080236C202B16D15F
:1019D8003EE04FEAE51808F0060848F0F0021A6100
:1019E800584933463A462046FFF7B2FC48B1236CC3
:1019F800236C042B4FF0000328D184F83C300125D8
:101A08005CE723684E49EDB21D613A4633462046ED
:101A1800FFF79EFC02460028E9D123680790596920
:101A28000791996907910799196841F480711960BC
:101A3800204600963B464FF00111FFF7C9FC0028ED
:101A4800D6D1226848F0F10313618FE784F83C305F
:101A5800032533E703955A6903929A690392039A17
:101A68001A6842F400721A60202384F83D3000237B
:101A780084F83E3084F83C3020E7022A1A680DD1F9
:101A880022F480621A601A6842F400621A600595AE
:101A98005A6905929B690593059B84E742F4806225
:101AA8001A6006955A6906929B690693069B7AE71F
:101AB800022B00963B464FF000024146204622D1B9
:101AC800FFF786FC0028C3D123681A6842F4007225
:101AD8001A60626A1B69511C61621370238D013B95
:101AE8002385638D013B9BB26385636A5A1C6262DE
:101AF800226812691A70238D013B2385638D013B8F
:101B08009BB2638551E7FFF763FC024600289FD12B
:101B18002368196821F480611960616A1B69481C8F
:101B280060620B70238D0096013B2385638D013B1A
:101B38009BB2638541463B462046C1E70200100040
:101B48000200010008000100040001003246394685
:101B58002046FFF70BFD00287FF437AF636A5A1C55
:101B68006262226812691A70238D2268013B2385FC
:101B7800638D013B9BB2638553695B077FF515AFA6
:101B8800636A591C6162B4E72DE9F047044686B0E0
:101B98009A460D469146109FFFF740FA94F83D305B
:101BA800202B064604D00225284606B0BDE8F0875B
:101BB80000901923012279492046FFF709FC0028E3
:101BC800F1D194F83C30012BEDD0012384F83C305E
:101BD80023681A68D2075EBF1A6842F001021A60C9
:101BE8001A6822F400621A60222384F83D304023E8
:101BF80084F83E300E9B63624FF00008BDF83C301D
:101C0800C4F840806385664BE362638D238529466B
:101C18000196009753464A462046FFF72DFC054695
:101C280030B1236C84F83C80042B3AD10125BBE702
:101C3800228D236892B902905A6902929A69029297
:101C4800029A1A6842F400721A60202384F83D3020
:101C5800002384F83E3084F83C30A5E7012A22D1DD
:101C68001A6822F480621A6003905A6903929A698A
:101C78000392039A1A6842F400721A60DFF824810A
:101C8800238D002BE1D0032B6BD8012B23D13246B7
:101C980039462046FFF76AFC002839D0236C202BF0
:101CA800C4D1032580E7022A0ED11A6822F4806283
:101CB8001A601A6842F400621A6004905A69049221
:101CC8009B690493049BD9E705905A6905929B691F
:101CD8000593059BD2E7022B00963B464FF0000286
:101CE8004146204622D1FFF773FB0028D9D123684B
:101CF8001A6842F400721A60626A1B69511C6162B8
:101D08001370238D013B2385638D013B9BB2638553
:101D1800636A5A1C6262226812691A70238D013B39
:101D28002385638D013B9BB26385A9E7FFF750FBD1
:101D380002460028B5D12368196821F4806119602A
:101D4800616A1B69481C60620B70238D0096013B19
:101D58002385638D013B9BB2638541463B46204604
:101D6800C1E7324639462046FFF700FC002895D1E6
:101D7800636A5A1C6262226812691A70238D22688B
:101D8800013B2385638D013B9BB2638553695B07E8
:101D98007FF576AF636A591C6162BDE702001000E7
:101DA8000000FFFF0400010037B500230193184B22
:101DB800184C1A6C42F080521A641B6C03F0805362
:101DC8000193019B144B01221A60FFF727F905467E
:101DD8006368DA030BD5114B0E4C01221A60FFF72A
:101DE8001DF9054663689B030AD5002006E0FFF746
:101DF80015F9401BB0F57A7FEAD9032003B030BD4E
:101E0800FFF70CF9401BB0F57A7FEBD9F5E700BF77
:101E1800003802400070004040000E4244000E426C
:101E28002DE9F0410D46044610B90120BDE8F081C6
:101E3800444B1A6802F00F028A4228D321688F07A0
:101E48002DD4C80740D43F4B1A6802F00F029542C0
:101E580066D3226851076CD4130707D53A4A21691B
:101E6800936823F4604343EAC103936000F098F851
:101E7800354B364A9B68C3F30313D35CD840344BC5
:101E880018600020FFF780F80020BDE8F081CAB292
:101E98001A701B6803F00F039942C6D1CEE72A4B8C
:101EA80011F0040F1EBF9A6842F4E0529A600E07C0
:101EB80042BF9A6842F460429A609A68A06822F029
:101EC800F00202439A60BCE762681F4B012A1DD1E9
:101ED8001B6813F4003FA8D01B4EB36823F003031C
:101EE8001343B360FFF79AF841F288380746B3689E
:101EF800626803F00C03B3EB820FA4D0FFF78EF8EF
:101F0800C01B4045F3D90320BDE8F081911E01298B
:101F18001B6802D813F0007FDDE713F0020FDAE741
:101F2800EAB21A701B6803F00F039D427FF47DAF7D
:101F38008FE70549E0688B6823F4E05303438B601F
:101F48008AE700BF003C02400038024041770008A1
:101F580084000020014B1868704700BF84000020EF
:101F6800044B054A9B68C3F38223D35C034A106879
:101F7800D84070470038024051770008840000209C
:101F8800044B054A9B68C3F34233D35C034A106889
:101F9800D84070470038024051770008840000207C
:101FA800204908B58B6803F00C03082B07D00C2BCD
:101FB80020D01D4A1D48042B18BF104608BD4A688A
:101FC8004B68496813F4800314BF18481648C1F3D6
:101FD800881118BF002302F03F02A1FB0001FEF7A1
:101FE8000FFE104B5B68C3F3014301335B00B0FB8A
:101FF800F3F008BD4A684B68496813F4800314BFBE
:102008000A480948C1F3881118BF002302F03F02AB
:10201800A1FB0001FEF7F4FD024B5B68C3F30273FA
:10202800E5E700BF003802400024F40000127A00FF
:1020380003682DE9F341DF07044610D423689E079F
:1020480067D423681A0700F1B28023685B0700F1A0
:10205800D080A269002A40F0398100201EE0974B09
:102068009A6802F00C02042A10D09A6802F00C0256
:10207800082A02D15B685D0208D4904B9A6802F086
:102088000C020C2A0DD15A6850020AD58B4B1B68DA
:102098009903D3D56368002BD0D1012002B0BDE8E5
:1020A800F0816268B2F5803F11D11A6842F480323B
:1020B8001A60FEF7B3FF814D06462B689A03BDD41C
:1020C800FEF7ACFF801B6428F7D90320E6E77B4DB9
:1020D800B2F5A02F2B6807D143F480232B602B681F
:1020E80043F480332B60E4E723F480332B602B68C0
:1020F80023F480232B60002ADBD1FEF78FFF0646EE
:102108002B689B039AD5FEF789FF801B6428F7D9B3
:10211800DBE76A4B9A6812F00C0F10D09A6802F04D
:102128000C02082A02D15B685F0208D5634A9368EB
:1021380003F00C030C2B11D153685E020ED45F4BD5
:102148001A68950702D5E268012AA6D11A6821699A
:1021580022F0F80242EAC1021A6072E7E268584BBC
:10216800B2B101221A60FEF759FF544D06462B689A
:10217800980707D52B68226923F0F80343EAC203BE
:102188002B605EE7FEF74AFF801B0228EFD99CE729
:102198001A60FEF743FF494D06462B6899077FF5FD
:1021A80050AFFEF73BFF801B0228F6D98DE7626926
:1021B800444B7AB101221A60FEF730FF3F4D0646C4
:1021C8006B6F9F073FF541AFFEF728FF801B022882
:1021D800F6D97AE71A60FEF721FF384D06466B6F8D
:1021E80098077FF532AFFEF719FF801B0228F6D952
:1021F8006BE7324B1A6C12F0805228D101921A6C9C
:1022080042F080521A641B6C03F080530193019BC7
:1022180001262D4D2B68D9051BD5A368274D012B09
:1022280027D12B6F43F001032B67FEF7F7FE234DF1
:10223800074641F288382B6F9B0739D5002E3FF4AB
:1022480008AF1E4A136C23F08053136401E700267D
:10225800DFE72B6843F480732B60FEF7DFFE074649
:102268002B68DA05D9D4FEF7D9FEC01B0228F7D9A6
:102278002BE7052B04D12B6F43F004032B67D0E722
:102288002A6F22F001022A672A6F22F004022A67C5
:10229800002BCAD1FEF7C2FE41F2883807462B6FE1
:1022A8009807CBD5FEF7BAFEC01B4045F7D90CE717
:1022B800FEF7B4FEC01B4045BDD906E70038024012
:1022C80000004742800E474200700040234DAB6833
:1022D80003F00C03082B3FF4E0AE214E0023022A42
:1022E80033602DD1FEF79AFE07462B68990121D459
:1022F800226AE3691343626A43EA8213E26A43EAA1
:102308000263226B43EA0273A26A144C5208013A30
:1023180043EA02436B6001233360FEF77FFE054604
:1023280023689A013FF599AEFEF778FE401B022814
:10233800F6D9CAE6FEF772FEC01B0228D5D9C4E654
:10234800FEF76CFE04462B689B017FF586AEFEF710
:1023580065FE001B0228F6D9B7E600BF0038024028
:1023680060004742036A23F001030362036A42687C
:1023780070B584690D6824F0730425438C6823F0D4
:10238800020323430C4CA04209D004F58064A04208
:1023980005D042604A6885614263036270BDCC68BB
:1023A8008E6923F0080323434C6922F440723443B6
:1023B80023F004032243ECE700000140036A23F4FE
:1023C80080730362036A426870B5C4690D6824F0BB
:1023D800730425438C6823F4007343EA04230E4CEA
:1023E800A04209D004F58064A04205D042604A6842
:1023F800C561C263036270BDCC688E6923F4006353
:1024080043EA04234C6922F44052344323F48063A2
:1024180042EA0412EAE700BF00000140036A23F41D
:102428008053036230B5046A4368C2690D6822F4B8
:10243800E64242EA05228D6824F4005444EA053451
:10244800094DA84209D005F58065A84205D043602A
:102458004B68C2610364046230BD4D6923F4804354
:1024680043EA8513F3E700BF000001400368DA6818
:1024780042F00102DA601A6842F001021A60002094
:102488007047704790F83830012B70B54FF0020351
:102498001CD080F839300368012280F838209A6807
:1024A80022F47F4222F077029A600A68402A79D0A3
:1024B80019D8102A00F093800AD8002A00F08980E1
:1024C800012380F83930002380F83830184670BD71
:1024D800202A00F08A80302AF2D19A6822F070020D
:1024E80042F0370236E0702A36D01BD8502A42D044
:1024F800602AE5D11C6A4D68CE6824F010041C627D
:1025080099691A6A21F4704122F0A00242EA051280
:1025180041EA063199611A629A6822F0700242F023
:10252800670217E0B2F5805F11D0B2F5005FC7D13E
:102538008A684D689C68C9682A4324F47F4442EA43
:10254800012222439A609A6842F4804202E09A6823
:1025580022F007029A60B3E78A684D689C68C968E8
:102568002A4324F47F4442EA012222439A609A686B
:1025780042F07702EEE74C68CE68196A1D6A25F0CA
:1025880001051D629A6921F00A0122F0F00242EA6F
:10259800061221439A6119629A6822F0700242F089
:1025A8005702D7E74C68CE68196A1D6A25F00105FD
:1025B8001D629A6921F00A0122F0F00242EA06122D
:1025C80021439A6119629A6822F0700242F0470228
:1025D800C0E79A6822F0700242F00702BAE79A68E8
:1025E80022F0700242F01702B4E79A6822F07002F3
:1025F80042F02702AEE700002E4A0368904212D04C
:10260800B0F1804F0FD0A2F57C4290420BD002F57A
:102618008062904207D002F58062904203D002F5B2
:10262800784290421DD14A6823F070031343214A2F
:10263800904204D1CA6823F44073134328E0B0F1F0
:10264800804FF7D01C4A9042F4D002F58062904245
:10265800F0D002F580629042ECD002F578429042C8
:10266800E8D0164A9042E5D002F580629042E1D067
:1026780002F580629042DDD0A2F598329042D9D01E
:1026880002F580629042D5D002F580629042D1D0A6
:1026980003608B68C3620B688362064B984206D05E
:1026A80003F58063984202D00123436170470B69A8
:1026B8000363F9E7000001400004004000400140C6
:1026C80010B50446A0B190F8393003F0FF021BB9E9
:1026D80080F8382003F030F9022384F83930206874
:1026E800211DFFF789FF012384F83930002010BD30
:1026F800012010BD10B50446A0B190F8393003F0A0
:10270800FF021BB980F83820FFF7BBFE022384F8CC
:1027180039302068211DFFF76FFF012384F8393015
:10272800002010BD012010BD036A23F010030362CE
:10273800036A426870B584690D6824F4E64444EA83
:1027480005258C6823F0200343EA04130D4CA042AE
:1027580009D004F58064A04205D042604A688561CA
:102768008263036270BDCC688E6923F0800343EAFC
:1027780004134C6922F44062344323F0400342EAD4
:102788008402EAE70000014038B590F83830012BA0
:1027980004464FF0020025D0012384F8383084F82D
:1027A80039000C2A18D8DFE802F0071717171E1788
:1027B80017172F17171740002068FFF7D3FD236856
:1027C80009699A6942F008029A619A6922F004023A
:1027D8009A619A690A439A610123002084F8393082
:1027E80084F8380038BD2068FFF79EFF2368096920
:1027F8009A6942F400629A619A6922F480629A6145
:102808009A6942EA0122E6E72068FFF7D7FD2368C4
:102818000969DA6942F00802DA61DA6922F0040229
:10282800DA61DA690A43DA61D6E72068FFF7F6FD6C
:1028380023680969DA6942F40062DA61DA6922F424
:102848008062DA61DA6942EA0122ECE7036A10B5CC
:1028580001248C4023EA04030362036A8A401A4372
:10286800026210BD10B5044601220068FFF7EEFFB2
:102878002368084A934203D002F58062934203D149
:102888005A6C42F400425A641A6842F001021A6013
:10289800002010BD0000014090F83830012B10B521
:1028A8004FF0020318D080F8393003680C685A6872
:1028B800496822F070025A605A6822435A609A683E
:1028C80022F080029A609A680A439A60012380F88D
:1028D8003930002380F83830184610BD90F8383069
:1028E800012B1FD0CB688A6823F4407313434A68CE
:1028F80023F4806313430A6823F4006313430A69CB
:1029080023F4805313434A6923F4005313438A6919
:1029180023F44043134302685364002380F838309B
:1029280018467047022070470368DA6822F49072EC
:10293800DA605A6922F001025A61202380F83A309D
:10294800704700002DE9F0470668C2683369C1691D
:1029580023F4405313433361044683680069F268E3
:102968000343606922F41642034322F00C020B432E
:102978001343F3607369A26923F440731343B1F5F9
:10298800004F73617A4B7CD19E4203D003F580637C
:102998009E4244D1FFF7F4FA192505FB00F360685D
:1029A8004FF064094000B3FBF0F3B3FBF9F34FEACF
:1029B8000318FFF7E5FA636868435B00B0FBF3F7B9
:1029C800FFF7DEFA636868435B00B0FBF3F3B3FB21
:1029D800F9F309FB1373DB003233B3FBF9F35B0044
:1029E80003F4F877FFF7CCFA626868435200B0FB4B
:1029F800F2FAFFF7C5FA636868435B00B0FBF3F3CC
:102A0800B3FBF9F309FB13A3DB003233B3FBF9F390
:102A180003F0070343443B44B360BDE8F087FFF786
:102A28009FFA192505FB00F360684FF06409400020
:102A3800B3FBF0F3B3FBF9F34FEA0318FFF790FA8F
:102A4800636868435B00B0FBF3F7FFF789FA6368D4
:102A580068435B00B0FBF3F3B3FBF9F309FB1373B3
:102A6800DB003233B3FBF9F35B0003F4F877FFF7CD
:102A780077FA626868435200B0FBF2FAFFF770FA1F
:102A8800B9E79E4202D03B4B9E4240D1FFF778FA0D
:102A9800676819254FF0640905FB00F3BF00B3FB15
:102AA800F7F3B3FBF9F31F01FFF76AFA63686843AA
:102AB8009B00B0FBF3F8FFF763FA636868439B0079
:102AC800B0FBF3F3B3FBF9F309FB13831B013233B8
:102AD800B3FBF9F303F0F008FFF752FA62686843B2
:102AE8009200B0FBF2FAFFF74BFA636868439B0069
:102AF800B0FBF3F3B3FBF9F309FB13A31B01323368
:102B0800B3FBF9F303F00F0343EA080383E7FFF786
:102B180027FA676819254FF0640905FB00F3BF0021
:102B2800B3FBF7F3B3FBF9F31F01FFF719FA636877
:102B380068439B00B0FBF3F8FFF712FA6368684339
:102B48009B00B0FBF3F3B3FBF9F309FB13831B0101
:102B58003233B3FBF9F303F0F008FFF701FA6268C8
:102B680068439200B0FBF2FAFFF7FAF9BDE700BF3D
:102B7800001001400014014010B5044640B390F81D
:102B8800393003F0FF021BB980F8382003F000F851
:102B98002268242384F83930D36823F40053D3609F
:102BA8002046FFF7CFFE23681A6922F490421A6183
:102BB8005A6922F02A025A61DA6842F40052DA604D
:102BC80000202023E06384F8393084F83A3010BDBF
:102BD800012010BD90F83A30202B1CD1C9B1C2B1E8
:102BE80090F83830012B16D0C28582850023222226
:102BF800C36380F83A2002688162516980F83830EE
:102C080041F001015161D16841F49071D1601846D9
:102C180070470120704702207047704790F83A309B
:102C2800222B10B532D1836801690268B3F5805F41
:102C3800836A1FD15268C9B9C2F3080223F8022B6C
:102C48008362C48D013CA4B2C4856CB90368DA6898
:102C580022F49072DA605A6922F001025A61202344
:102C680080F83A3002F094FA002010BDD2B223F86E
:102C7800012BE5E721B9591C526881621A70E0E717
:102C88005268591C816202F07F02F7E7022010BDEA
:102C98007047000003681A68D96870B516070446BB
:102CA8005D6907D196065AD58D0658D5BDE870409E
:102CB800FFF7B4BF15F0010502D111F4907F4ED093
:102CC800D30705D5CE0542BFE36B43F00103E363A9
:102CD800500704D51DB1E36B43F00203E363930788
:102CE80004D51DB1E36B43F00403E363160704D571
:102CF8001DB1E36B43F00803E363E36B002B66D07D
:102D0800950604D5880602D52046FFF787FF236875
:102D18005D69E26B1107204602D415F040051AD010
:102D2800FFF702FE23685A69520610D55A69606B8C
:102D380022F040025A6150B1254B0365FEF701FAB3
:102D4800002844D0606BBDE87040036D18472046EA
:102D5800FFF79EFF70BDFFF79BFFE56370BD16068A
:102D680027D50D0625D594F83920212A2FD1A26818
:102D7800B2F5805F226A17D11188C1F30801596042
:102D8800216979B902322262E28C013A92B2E28474
:102D9800EAB9DA6822F08002DA60DA6842F04002C2
:102DA800DA6070BD0132EEE7511C216212785A6078
:102DB800EAE750060BD54A0609D5DA6822F0400240
:102DC800DA60202384F839302046FFF726FF70BDEB
:102DD800DD2D000808B5806B0023C385C384FFF789
:102DE80057FF08BD00B52DED028BB5EEC03AF1EEE8
:102DF80010FA83B0B0EE638A18D513EE100AFDF707
:102E080063FBCDE9000118EE100AFDF75DFB9DEDAF
:102E1800001B41EC100B03F08DFA294953EC102BE1
:102E28000020FDF7F1F9FDF79BFE1BE037DDF5EE1D
:102E3800C03AF1EE10FA1CD513EE100AFDF744FB68
:102E4800CDE9000118EE100AFDF73EFB9DED001BD1
:102E580041EC100B03F06EFA51EC100BFDF780FEFD
:102E680080F00040174B186003B0BDEC028B5DF892
:102E780004FBF9DD13EE100AFDF726FBCDE900018E
:102E880018EE100AFDF720FB9DED001B41EC100B1E
:102E980003F050FA002053EC102B0B49C1E7B5EEB4
:102EA800403AF1EE10FADFD1F5EEC03AF1EE10FA41
:102EB80003D5064A034B1A60D6E7D5DD044AF9E77D
:102EC80000806640CC020020008076400000B442BA
:102ED80000008743024A0349034800F0C5BA00BF0F
:102EE800E40A0020E0060020E80A0020044A002343
:102EF800136053609360034A136053609360704794
:102F0800040B0020F00A0020154B164A16484FF013
:102F1800FF31196000231360144A026014480260EC
:102F2800144802601448026014480260144A116090
:102F3800144AFF201080144A1160144A1160144A80
:102F48001370144A1370144A02211170134A137033
:102F5800134A1370134A1370134A1370704700BF53
:102F6800600B0020140B0020800B0020FFC99A3B47
:102F78007C0B0020280B0020340B0020440B002081
:102F8800780B00208A0B0020380B0020700B0020E3
:102F98008D0B0020640B0020180B00208C0B0020E8
:102FA800480B0020490B0020190B0020A0F1410319
:102FB800052B01D837387047A0F16103052B94BF62
:102FC80057383038704710B5421E0A24002012F8CE
:102FD800013FA3F13001092900D910BD04FB0030DD
:102FE8003038F4E738B5144B1C4614F8015B2D2D26
:102FF80018BF1C462046FFF7E6FF642358432346C4
:103008001A4613F8011BA1F13004092CF8D92E290E
:103018000DD15378303BD9B2092908D80A2101FBD0
:1030280003009378303BDAB2092A98BFC0182D2DD7
:1030380008BF404238BD00BF190B002070B51748C3
:10304800164CFFF7C0FF6422B0FBF2F302FB130239
:10305800134B53432278A2F13005092D214604F180
:103068000104F7D92E2A08D142F210740A2611F861
:10307800012F303AD5B2092D0AD964220333B0FBA7
:10308800F2F00622B3FBF2F3064A02FB003070BDF1
:1030980004FB0233B4FBF6F4E9E700BF190B002088
:1030A800A086010040420F00431E013913F8010FAA
:1030B80018B111F8012F8242F8D0704738B5904BFB
:1030C8001C78002C5DD08F490878FFF76FFF024607
:1030D8004878FFF76BFF8C4B00EB02101B78C0B2EF
:1030E800834247D1894B1C78002C48D0884A1388E2
:1030F80001331380874B1A68874B1A60874B1A680D
:10310800874B1A60874B1C78D4B1012C30D1864B81
:103118001A68864B1A60864B1A68864B1A60864B6B
:103128001A68864B1A60864B1A68864B1A60864B5B
:103138001A68864B1A60864B1A68864B1A601EE01E
:10314800854B1A68854B1A60774B1A68774B1A605B
:10315800794B1A68794B1A60794B1A68794B1A605F
:103168007F4B1A887F4B1A807F4B1A687F4B1A60F7
:10317800012404E07E4A138801331380002420468A
:1031880038BD7C4B674D1A7882B97B495D48FFF79B
:103198008BFF10B901232B70F1E778495948FFF7E5
:1031A80083FF08B92C70EAE70223F4E7297802299B
:1031B800E5D0544B1B78002BE1D042EA4112013A8A
:1031C800282ADCD801A151F822F000BF7932000882
:1031D80095320008A3320008B3320008BD32000857
:1031E800E1320008EB320008F93200080133000828
:1031F80087310008873100088731000887310008C7
:1032080087310008873100088731000887310008B6
:1032180087310008873100088731000887310008A6
:103228008731000887310008873100088731000896
:103238008731000887310008873100088731000886
:103248008731000887310008873100087932000883
:103258008732000895320008A3320008B33200080C
:10326800BD320008C7320008CF320008D732000844
:10327800FFF7B8FE2C4B00221860264B5EE7A3F13F
:10328800410253425341214A137078E7FFF7D6FEB3
:10329800294B00221860214B50E7532B7FF46FAF66
:1032A800254A13685B42136069E7FFF7C7FE244BA2
:1032B800186064E7572B7FF462AF214AF1E7FFF704
:1032C80091FE214BF4E7FFF78DFE214BF0E70D4807
:1032D800FFF779FE164BEBE7302B94BF0023012351
:1032E800D1E7084802F009FD1D4BC0B2188046E737
:1032F800FFF778FE1C4BDBE7FFF774FE164BD7E7AA
:10330800640B0020190B00208D0B0020490B0020B6
:10331800500B00203C0B0020380B00206C0B0020C9
:10332800700B0020180B0020580B0020600B0020A9
:10333800680B0020140B0020300B0020800B0020AD
:103348005C0B00207C0B0020740B0020340B002049
:103358002C0B0020440B0020840B0020280B00209D
:10336800880B00208A0B00204C0B0020780B0020D3
:10337800660B00208C0B0020287700082E770008A9
:10338800254A1368242803F1010370B50446136025
:10339800224D234E23D018D80A2801D00D282BD12E
:1033A8002B780E2B4FF0000003D81E4AD054FFF79D
:1033B80085FE1D4A13780133137000232B70A4F186
:1033C8002A035C425C41347070BD2A28E8D02C285E
:1033D80012D1164A137883F02C031370E0E7124BCE
:1033E80000201870114B28701870114B3070022291
:1033F8001A70104B187070BD2B7830780D2B9FBF4A
:103408005A1C2A70074AD45420B9084B1A785440D9
:103418001C7070BD002070BD540B0020480B0020AC
:10342800640B0020190B00208C0B00208D0B002052
:10343800180B0020490B002010B1074B1B680360D4
:1034480011B1064B1B680B602AB1054B1B68591C50
:1034580018BF5B4213607047800B00207C0B002074
:10346800700B002000000000F7B507460E466846BE
:1034780001A9FFF7E1FF144C009DA54219D0284689
:10348800FDF710F80EA3D3E90023FDF79BF9FDF72C
:1034980067FBA54238600ED00198FDF703F808A332
:1034A800D3E90023FDF78EF9FDF75AFB306003B02E
:1034B800F0BD0648EDE70548F8E700BFAFF3008028
:1034C8000000000080842E41FFC99A3B00007A4426
:1034D800014B1868704700BF280B002010B500F09A
:1034E800B9FF01F0D3F800F005FD0B4B0B4C186049
:1034F80001F034FE01F0D2FE01F09AFE206000F0E7
:103508003BFE01F0CBFE01F093FE20600028F6D0D0
:10351800BDE81040FFF7EABCF40B0020A00B002028
:103528002DE9F04F804C814F2068814DDFF8509293
:10353800DFF850827F4EDFF850B2DFF850A295B026
:1035480000F056FF7C4B18602368632BC4BF002330
:1035580023607A4C3A462146284600F07FFE01F067
:103568009DFE774B0393774B0193774B0093CDF8F0
:1035780008804B46754A7649764801F05FFE764AE0
:10358800694910680B6803440B601068FCF77AFF00
:1035980063A3D3E90023FDF715F9FDF7E1FA3060DD
:1035A80000F052FF96ED003AD5ED022A95ED012A7A
:1035B800D5ED001A94ED021AD4ED010A94ED000A33
:1035C80001F024FB7868FCF77FFFCDE91201386829
:1035D800FCF77AFFCDE91001A868FCF775FFCDE983
:1035E8000E016868FCF770FFCDE90C0128685B4D97
:1035F800FCF76AFFCDE90A01A068FCF765FFCDE991
:1036080008016068FCF760FFCDE906012068FCF757
:103618005BFFCDE904013068FCF756FFCDE90201F4
:10362800B868FCF751FF9DED127B9DED106B9DED89
:103638000E5B9DED0C4B9DED0A3B9DED082B9DED22
:10364800061B9DED040BCDE90001FFF7CBFB96EDC2
:10365800000A434E01F092F9424B04931A46314650
:10366800284601F009FD96ED002AD5ED001A97EDE0
:10367800021AD7ED010A97ED000A3B4F01F0ECFB67
:103688003A4A92ED000A2C4AB8EE400A106801F056
:10369800FDF82E4BDFF8F8E093ED002A2C4BDEED19
:1036A800002AD3ED001A049B38605A465146304828
:1036B80093ED001AD6ED000A95ED000A2D4E2E4D19
:1036C800B1EE422A01F000F9294BD4ED010A94ED3C
:1036D800021A94ED000A294CD3ED001ADBED002AFA
:1036E8009AED002AF1EE600A01F0B0F93246294657
:1036F800204601F075F91748B4F90010D8F80040D1
:10370800B6F90030B5F9002000880294D9F80040D5
:1037180001943C68009400F0D3FE15B0BDE8F08F2A
:10372800000000000088C340E80B0020A40B002024
:10373800BC0B002008000020D9340008DC0B002056
:10374800880200209C0B0020C80B00207C0200206F
:1037580080020020B20B002024440140980B002076
:10376800F00B0020900B0020D40B0020F40B00205D
:10377800B40B0020B00B0020D80B0020CC0B00208D
:10378800EC0B0020A00B0020940B0020B80B0020AD
:10379800840200201FB564238DF80C108DF80D20CD
:1037A80000930146022303AA0248FDF7A1FF05B0D2
:1037B8005DF804FB080F00202DE9F04F964B85B00B
:1037C8001868FCF75FFE954B044618880D46FCF711
:1037D80069FE0022924BFCF7CBFE02460B462046C0
:1037E8002946FCF711FDFDF773F98E4B18608E4BD7
:1037F800054618886843FCF755FE00224FF07A53B7
:10380800FCF7B6FE0022894BFCF700FDFDF760F9D6
:10381800874B044618886843FCF744FE00224FF0A3
:103828007E53FCF7A5FE834B064618880F46FCF727
:1038380039FE0022804BFCF79BFE02460B463046C1
:103848003946FCF7E3FCFDF7F3F97C4BCDE90001C1
:1038580018886843FCF726FE0022794BFCF788FE9F
:10386800784B064618880F46FCF71CFE0022764B5C
:10387800FCF77EFE02460B4630463946FCF7C6FC8E
:10388800FDF7D6F9B4F5FA6FCDE902016F4E80F273
:10389800B7802846FCF706FE02460B46FCF768FE92
:1038A80000224FF07853FCF763FEFDF7C1F9C6E933
:1038B8000001A4F5FA60FCF7F5FD02460B46FCF79B
:1038C80057FE0022624B634DFCF752FE0022624B0A
:1038D80080468946FCF74CFEFDF7AAF95F4B064681
:1038E8000F46C3E9006700225D4B40464946FCF796
:1038F8003FFEFDF79DF95B4B82468B469C42C5E92E
:1039080000AB3ADA04F2DC50FCF7CCFD02460B4679
:10391800FCF72EFE8046894630463946FCF7FAFD0C
:10392800002206460F46504B40464946FCF720FE0B
:1039380002460B4630463946FCF768FCFDF778F935
:10394800464B0022C3E90001484B40464946FCF774
:103958000FFE0022404BFCF70BFE06460F46504672
:103968005946FCF7D7FD02460B4630463946FCF768
:103978004DFCFDF75DF9C5E90001344B1B68E41AFD
:103988003B4B1C60354BD3E90045DDE90023121B96
:1039980063EB05031D46374B1446C3E900452D4B21
:1039A800DDE90201D3E90023801A61EB03010B462C
:1039B80031490246C1E9002330490E68A6FB0001DF
:1039C80006FB0311FCF7A6FD00222D4BFCF7D0FDEA
:1039D80006460F4620462946FCF79CFD02460B4644
:1039E80030463946FCF710FC00224FF07C53FCF7B8
:1039F800BFFDFDF76DF8234B186005B0BDE8F08FEB
:103A0800164900220023C1E900231249C6E9002310
:103A1800C1E90023B1E700BF580C0020080C0020C2
:103A280000007040900C0020A40C002000409F4033
:103A3800840C0020340C00200000F040480C0020CA
:103A48000000703F940C00200000E040000C0020B3
:103A580000001440600C00200000E03FF80B00203C
:103A68000000D03F24FAFFFF00001C400000264061
:103A78004C0C0020100C0020200C00206C0C0020A6
:103A88000000A03EA00C002008B500226B21D02029
:103A9800FFF780FE00221921D020FFF77BFE0622C7
:103AA8001A21D020FFF776FE18221B21D020FFF71D
:103AB80071FED02010221C21FFF76CFE6420BDE8A7
:103AC8000840FDF7B1BA08B500226A21D020FFF7F7
:103AD80061FE02223721D020FFF75CFE7822002108
:103AE8003C20FFF757FE402201213C20FFF752FE01
:103AF800002202213C20FFF74DFE00223721D02072
:103B0800FFF748FE6420FDF78FFA9E222521D0207A
:103B1800FFF740FE03222621D020FFF73BFE82223A
:103B28002721D020FFF736FE9E222821D020FFF73C
:103B380031FE05222921D020FFF72CFE82222A21DE
:103B4800D020FFF727FE9E222B21D020FFF722FE50
:103B580007222C21D020FFF71DFE82222D21D02004
:103B6800FFF718FED02020226A21FFF713FE6420F9
:103B7800BDE80840FDF758BA70B58AB01E238DF825
:103B88000F30A2238DF81430A4238DF81530A62306
:103B98008DF81630A8238DF81730AA238DF8183021
:103BA8006425AC238DF819300DF10F020123EE21A5
:103BB80000952248214EFDF79BFD0A20FDF734FAB7
:103BC800002405AA22440123EE2100953046FDF782
:103BD8008FFDC823009304AA0223EF213046FDF786
:103BE8005DFE9DF81130ADF812309DF810308DF85B
:103BF800133007ABBDF8122023F814200134062C2B
:103C0800DFD10F4BBDF81C201A800E4BBDF81E20CB
:103C18001A800D4BBDF820201A800C4BBDF82220CD
:103C28001A800B4BBDF824201A800A4BBDF82620B9
:103C38001A800A20FDF7F8F90AB070BD080F0020B5
:103C4800940C0020340C0020480C0020840C002028
:103C5800080C0020A40C0020F0B58FB006AC0E268E
:103C68000D46074632460021204602F06FF86423CD
:103C780002932A4601238DE85000394630488DF8D2
:103C88001850FDF781FF00230AAAE15C8DF8171090
:103C9800E11849788DF81610BDF8161099520233BC
:103CA8000E2BF2D1BDF92830BDF92E0007EE903A5F
:103CB800244BF8EEE77AC3ED007ABDF92A3007EE17
:103CC800903A214BF8EEE77AC3ED007ABDF92C3033
:103CD80007EE903A1D4BF8EEE77AC3ED007A4FF401
:103CE800AA7390FBF3F0FCF7DDFB13A3D3E90023E1
:103CF800FCF78CFAFCF734FF154B1860BDF930302F
:103D080007EE903A134BF8EEE77AC3ED007ABDF967
:103D1800323007EE903A104BF8EEE77AC3ED007AAE
:103D2800BDF9343007EE903A0C4BF8EEE77AC3ED64
:103D3800007A0FB0F0BD00BFA4703D0AD7434240DF
:103D4800080F00203C0C0020880C0020180C0020D4
:103D58001C0C0020C00C0020A80C0020680C0020BF
:103D680030B58BB006AD00246423AC8002930623E3
:103D78000A46069401938DF8181001230146009510
:103D88002B48FDF701FF234608AAE95C8DF81710B8
:103D9800E91849788DF81610BDF8161099520233B3
:103DA800062BF2D1BDF9203007EE103A214BB8EEC0
:103DB800C77A83ED007ABDF9243007EE903A1E4B9E
:103DC800F8EEE77AC3ED007ABDF9223006EE903AB4
:103DD8001A4BF8EEE66AC3ED006A194BD3ED006A98
:103DE800B4EEE67AF1EE10FAC8BF83ED007A154B0F
:103DF800D3ED006AF4EEE67AF1EE10FAC8BFC3ED2F
:103E0800007A114BD3ED006AB4EEE67AF1EE10FABF
:103E180048BF83ED007A0D4B93ED007AF4EEC77A34
:103E2800F1EE10FA48BFC3ED007A0BB030BD00BF09
:103E3800080F00208C0C00202C0C0020780C00208F
:103E4800280C0020C40C0020380C0020740C002022
:103E58001FB5002202920392421C034622D0012879
:103E68001DD164220092EE211E4A1F48FDF740FC36
:103E7800C823009302AA0423EF211B48FDF70EFD77
:103E88009DF80A308DF80C309DF809308DF80D300A
:103E98009DF808308DF80E30039A144B1A6005B05F
:103EA8005DF804FB642300930E4A0F480123EE21BA
:103EB800FDF71EFCC823009302AA0423EF210A4839
:103EC800FDF7ECFC9DF80A308DF80C309DF80930B0
:103ED8008DF80D309DF808308DF80E30039A044B9C
:103EE800DCE700BF0E000020080F00206C0C00204B
:103EF800580C00202DE9F04F2DED028B85B0FFF70F
:103F0800C3FDFFF7E0FDFFF737FEDFF81482804FAF
:103F1800C826642501234246EE2100953846FDF760
:103F2800E7FB0F20FDF780F80120FFF791FF012341
:103F3800784A0095EE213846FDF7DAFB0F20FDF7A9
:103F480073F84FF0FF30FFF783FF734CFFF734FC33
:103F5800724A23681268013E13442360D9D1EE21C6
:103F6800C8226B4893FBF2F36D4A23600123009546
:103F7800FDF7BEFB0F20FDF757F80120FFF768FF9C
:103F88000123644A0095EE216148DFF8E0A1DFF8DB
:103F9800E091FDF7ADFB0F20FDF746F84FF0FF303D
:103FA800FFF756FFFFF708FC23685E4A0392A3F564
:103FB800FA6313604FF4FA6B4FF000084921D020E0
:103FC800FFF7CEFE3B21D020FFF746FE564BDAED39
:103FD800008AD3ED007A554D554B95ED008A554C26
:103FE80078EEA78AD3ED007A534BCAED008A38EEF3
:103FF800278A186885ED008AFCF766FA42464B4620
:10400800FCF702F9064620680F46FCF75DFA0246FF
:104018000B4630463946FCF7F9F8FCF7A1FD474F47
:10402800474BD7ED004AD3ED007A464E464B96ED06
:10403800005A206074EEA74A04EE100AD3ED007A05
:104048004248434BD0ED005A4249434A91ED006A39
:10405800D2ED006ADFF81CE1C7ED004A35EE275AB9
:10406800D3ED007A3D4B86ED005A75EEA75AD3ED95
:10407800007A3B4BC0ED005A36EE276AD3ED007A42
:10408800384B81ED006A76EEA76A93ED007ADEED93
:10409800007AC2ED006A37EE277ABBF1010B83ED97
:1040A800007A8BD1DFED307AC8EEA73ACAED003A34
:1040B800C8EE273AC5ED003AC4EE273A84EEA74A7F
:1040C800C5EE274A85EEA75AC6EE275A86EEA76A96
:1040D800C7EE276A80ED005AC3ED006A6423C1ED7C
:1040E800005A82ED006AC4ED003A87ED004AC6ED39
:1040F800004A0B4A0093EE2101230548FDF7F8FA20
:10410800039B186805B0BDEC028BBDE8F08F00BFBB
:10411800080F00200D0000207C0C0020A00C0020BF
:104128000C000020AC0C00203C0C00209C0C002053
:10413800880C0020400C0020180C00200C0C0020DB
:10414800C00C0020980C0020A80C0020B80C0020FF
:10415800680C0020800C0020440C00208C0C0020EF
:104168002C0C0020540C00200000FA44300C0020D5
:104178000000B040780C0020F8B54921D020FFF7A6
:10418800EFFD2C4B2C4A93ED007AD2ED007A2B4AA6
:104198002B4FD2ED006A2B4D2B4E2C4C37EE677A05
:1041A8001E2083ED007A2A4BD3ED007A77EEE67A6B
:1041B800D7ED006AC3ED007AB4EEE67AD5ED006A71
:1041C800F1EE10FAF4EEE67AD6ED006AC8BF87ED94
:1041D800007AF1EE10FAB4EEE67AC8BFC5ED007ABF
:1041E800F1EE10FA48BF86ED007A94ED007AF4EE0D
:1041F800C77AF1EE10FA48BFC4ED007AFCF714FF55
:10420800D6ED007A97ED007A124B37EE277AF6EE64
:10421800006A27EE267AD5ED007A83ED007A94EDD0
:10422800007A0D4B77EE877A67EEA67AC3ED007AAF
:10423800F8BD00BF8C0C0020800C0020440C00202E
:10424800280C0020C40C0020380C0020740C00201E
:104258002C0C0020700C0020BC0C002070B5064609
:104268000D46D0203B211446FFF7F6FC4921D0200B
:10427800FFF776FD474B484A93ED004AD2ED007AA6
:10428800464A34EE674AD2ED007A83ED004A444B41
:10429800444AD3ED004A74EEE74AD2ED007AC3ED02
:1042A800004A414B414A93ED005A35EE675AD2ED28
:1042B800007A83ED005A3E4B3E4AD3ED005A75EE24
:1042C800E75AD2ED007AC3ED005A3B4B3B4A93EDD7
:1042D800006A36EE676AD2ED007A83ED006A384BE1
:1042E800384AD3ED006A76EEE76AD2ED007AC3ED7C
:1042F800006A354B354A93ED007AD2ED003A344ADC
:1043080037EE677A92ED003A83ED007A314BD3EDC0
:10431800007A77EEE37AC3ED007A2F4BD3ED003ABB
:1043280073EEC33A9FED2D3AC3ED003A25EE035ADA
:104338002B4B86ED025A9FED2B5A24EE034A26EEAC
:10434800056A66EE856A64EE834A65EE855A86EDEF
:10435800004AC6ED014A85ED016AC5ED005AC5ED72
:10436800026AD3ED006A204B37EE667ADFED1F6AEA
:1043780087EE266A93ED007A84ED006A77EEC77AB5
:1043880087EEA67AC3EEA67A84ED017AC4ED027AA6
:1043980070BD00BF3C0C0020300C00209C0C00209D
:1043A800880C0020400C0020180C00200C0C002069
:1043B800C00C0020980C0020A80C0020B80C00208D
:1043C800680C0020800C00208C0C0020440C00207D
:1043D800540C00202C0C0020780C002000008039A0
:1043E800700C002000007A3DBC0C002000004D44F9
:1043F800632813B510DD0F4C2068FFF729FD2368EB
:104408006422012B00920BD10B4A0C48EE21FDF7D8
:104418006FF923685B422360094B186802B010BD2E
:104428000123084A0548EE21FDF762F9FFF7C4F9B0
:10443800EFE700BF100000200C000020080F00204C
:10444800A00C00200D000020014B00221A607047CC
:104458002444014010B5134C00212046FEF702FA0F
:1044680004212046FEF7FEF908212046FEF7FAF956
:1044780020460C21FEF7F6F90B4A47F23053136039
:104488000A4A13600A4A13600A4A13600A4A4FF438
:104498007A705363BDE810409363D3631364FCF7E9
:1044A800C3BD00BF5C0F0020D40C0020F40C00201A
:1044B800E80C0020C80C00200004014000000000A7
:1044C8002DE9F0411546079A6B4C01321E46864687
:1044D8000F46089B60D1002B5AD1069BDFF8A8E154
:1044E800664847F618124F0012FA83F3DA1B6D007C
:1044F8003B445119A3EB050C2B44551B33444EF692
:104508004762891BACEB060C35445D4ECEF80010B3
:10451800914235603146C4BF4EF64866CEF8006019
:10452800584F03609445C8BF4EF64862C7F800C0AC
:10453800C8BF3A604EF647629342C4BF4EF648631E
:1045480003609542C8BF4EF64863DEF80020C8BF36
:104558000B6047F618139A423A68D8BFCEF8003075
:104568009A420268D8BF3B6047F618139A420A6815
:10457800D8BF03609A42D8BF0B60DEF8003063638F
:104588003B68A3630368E3630B682364BDE8F081B9
:1045980040F2A463984205D947F230536363A3639A
:1045A800E363F2E7FBF77EFF31A3D3E90023FBF7D0
:1045B800DFFFFCF7B5FA47F618137F0013FA80F00F
:1045C800C31B6D0059193844891BA0EB050C2844FE
:1045D8005D1B4EF64763DFF8B0E02A4FCEF80010B7
:1045E80099423044ACEB060C3544C4BF4EF64866DD
:1045F800CEF800609C45C8BF4EF64863C7F800C0B7
:10460800DFF87880C8BF3B604EF647639842C8F829
:104618000000C4BF4EF64860C8F80000184ADEF82B
:10462800000015609D42C4BF4EF64863136047F60C
:10463800181398423868D8BFCEF800309842D8F896
:104648000000D8BF3B6047F6181398421068D8BFDF
:10465800C8F800309842D8BF1360DEF800306363B2
:104668003B68A363D8F80030E36313688DE700BFA5
:10467800A51710B5C84D324000040140E80C0020D1
:10468800C80C0020F40C0020D40C002070B5594B45
:10469800594ED3ED001A594B594D93ED001A594B09
:1046A800594CD3ED000A2DED048BDFED588A9FEDB0
:1046B800588ADFED589A9FED589AB0EE682AB0EE06
:1046C800480A304600F00EFA544BD3ED001A544B0A
:1046D80093ED001A534BB0EE682AD3ED000AB0EE02
:1046E800480A284600F0FEF94F4BD3ED001A4F4B0D
:1046F80093ED001A4E4BB0EE682AD3ED000AB0EEE7
:10470800480A204600F0EEF94A4B4B48D3ED001A10
:104718004A4B93ED001A4A4BB0EE682AD3ED000AD3
:10472800B0EE480A00F0DEF9F0EE690AB0EE490A88
:10473800304600F05FFAF0EE690AB0EE490A284602
:1047480000F058FA2046DFED3F0A9FED3F0A3F4E42
:104758003F4D404C00F04EFA3F4BD3ED001A3F4B13
:1047680093ED001A3E4BB0EE682AD3ED000AB0EE86
:10477800480A304600F0B6F93A4BD3ED001A3A4BE6
:1047880093ED001A394BB0EE682AD3ED000AB0EE6B
:10479800480A284600F0A6F9354BD3ED001A354BE8
:1047A80093ED001A344BB0EE682AB0EE480ADFEDFC
:1047B800338A9FED338AD3ED000A204600F092F940
:1047C800F0EE680AB0EE480A304600F013FAF0EE50
:1047D800680AB0EE480A284600F00CFABDEC048BD3
:1047E8002046DFED280A9FED280ABDE8704000F05A
:1047F80001BA00BF280000200C0D00202C0000206A
:10480800C80D002030000020240E00206F12033B4A
:1048180000000000000048C30000484314000020C6
:10482800180000201C0000204800002094020020EE
:104838004C0000203C0000206C0D002040000020AF
:10484800440000200000B4C30000B443F40D00206D
:104858009C0D0020400D0020340000209002002014
:1048680038000020200000208C02002024000020B6
:1048780050000020540000205800002000005EC3B3
:1048880000005E4333B326C333B3264310B50C4C44
:104898002DED028B08EE100A204600F0B0F9B8EEB4
:1048A800C80A204600F06EF9BDEEC00ABDEC028BC6
:1048B80010EE103A5842034B00B2188010BD00BFEA
:1048C8006C0D0020200E002070B506462DED068BDD
:1048D8002448B0EE40AAB0EE610AB0EE609AF0EE5D
:1048E800418AF0EE429AB0EE628A0D46144600F014
:1048F80086F91C48B0EE4A0A00F044F91A4886EDD9
:10490800000AB0EE690A00F07AF9B0EE490A1648D2
:1049180000F038F9DFED157A85ED000A38EE680AFF
:10492800B4EEE70AF1EE10FA10DDDFED117A30EEA1
:10493800670A104800F063F9B0EE680A0D4800F005
:1049480021F9BDEC068B84ED000A70BDDFED0A7A13
:10495800B4EEE70AF1EE10FA44BFDFED057A30EE67
:10496800270AE6E70C0D0020C80D0020000034439C
:104978000000B443240E0020000034C308B51248D8
:104988002DED028BB0EE408A00F03CF9B0EE480AFB
:104998000E4800F037F9B0EE480A0D4800F032F939
:1049A800B0EE480A0B4800F02DF9B0EE480A0A4864
:1049B80000F028F9B0EE480ABDEC028B0748BDE8C4
:1049C800084000F01FB900BF0C0D0020F40D0020B6
:1049D800C80D00209C0D0020240E0020400D002052
:1049E800064BB3F900300380054BB3F900300B8058
:1049F800044BB3F900301380704700BF980D0020B6
:104A08003C0D00203A0D0020DFED0D7AB4EEE70AE8
:104A1800F1EE10FA82B00EDCDFED0A7AB4EEE70AA6
:104A2800F1EE10FA0AD4FDEEC07ACDED017ABDF9A7
:104A3800040002B0704747F6FF70FAE70248F8E74B
:104A480000FEFF4600FEFFC60180FFFF10B51F4CA9
:104A58002DED068B2046B0EE40AAB0EE610AB0EE0E
:104A6800609AB0EE418AF0EE429AF0EE628A00F067
:104A7800C6F801212046B0EE4A0A00F04BF8FFF7CD
:104A8800C3FF134C134BB0EE690A1880204600F0A0
:104A9800B6F802212046B0EE490A00F03BF8FFF7CD
:104AA800B3FF0D4C0D4BB0EE680A1880204600F09D
:104AB800A6F80321B0EE480A204600F02BF8FFF7CD
:104AC800A3FFBDEC068B064B188010BDF40D00202B
:104AD8009C0D0020980D0020400D00203C0D00206A
:104AE8003A0D0020002343600360C3600361074B55
:104AF8000362074BC0ED050A80ED061AC0ED071AE0
:104B080080ED020A436280ED0A2A70470000FA44E9
:104B18000000FAC4D0ED027A90ED037A90ED0A6AAB
:104B2800D0ED086A77EEC07AA7EE867AC0ED017AF2
:104B3800B4EEE67AF1EE10FA80ED037A02DDC0ED0C
:104B4800036A06E0D0ED096AB4EEE67AF1EE10FAEF
:104B5800F5D490ED007A90ED060AC0ED007A37EEB4
:104B6800C77AC7EE066A90ED037AC0ED046A20EEB4
:104B7800070A90ED057AA7EE870A90ED077AA6EE68
:104B8800870A7047D0ED027A90ED037A90ED0A6AB1
:104B9800D0ED086A77EEC07AA7EE867AC0ED017A82
:104BA800B4EEE67AF1EE10FA80ED037A02DDC0ED9C
:104BB800036A06E0D0ED096AB4EEE67AF1EE10FA7F
:104BC800F5D490ED007A90ED060AC0ED007A37EE44
:104BD800C77AC7EE066A90ED037AC0ED046A20EE44
:104BE800070A90ED057AA7EE870A90ED077AA6EEF8
:104BF800870A704780ED080AC0ED090A704780ED02
:104C0800020A704780ED0A0A70470000F8B5DFED28
:104C1800867A9FED867A864E864C874F874D20EEA2
:104C2800270A60EEA70A21EE271AF5EE401AF1EEE0
:104C380010FA2DED088BB0EE61BAF0EE42AAB0EE94
:104C480062AAF0EE439AC0EE078A80EE878A81EE68
:104C5800079A09D1B5EE402AF1EE10FA04D1F5EE23
:104C6800402AF1EE10FA6FD06AEEAA7AEBEE0B7AD0
:104C7800EAEE0A7A17EE900AFBF726FC41EC100BD5
:104C880001F05AFB51EC100BFBF76AFF07EE900A94
:104C98008AEE274A6A4B6B486B4900228BEE275AEB
:104CA800CAEEA74A94ED006AD7ED005AD5ED006A1E
:104CB800D6ED007A26EEE57A66EE266AA7EE867AC3
:104CC800E7EEA56AFEEE007AE5EEA57AE6EE067A4C
:104CD80026EEC46AA4EEA76A67EEC57AE4EE077A00
:104CE80027EE647AA5EE267AD3ED006A574BF5EEE7
:104CF800C06AF1EE10FA40F3928066EE265AD0EDC3
:104D0800004A91ED005AE5EEA94A67EEA65A67EE09
:104D1800266AA9EEA55AD3ED005AC0ED004AE9EE7D
:104D2800A65A78EEA48A38EE058A39EE259A81EDDE
:104D3800005AC3ED005A464BD3ED006AE6EE268AC8
:104D4800A7EEA68AA7EE269AB6EE003A69EE839AEF
:104D5800D5ED005A97ED005AD6ED004A94ED006A59
:104D680029EE299A68EEA98A28EE298A69EE257A19
:104D780065EEC86AE8EE857AE4EEE86AE8EE467A17
:104D880024EEC97AE9EE466AA8EE057A77EEA47AA7
:104D980028EE248A76EE856AA8EE867AA9EE058A38
:104DA800C6ED007A67EEA77A37EE257AE6EEA67AA0
:104DB800A8EEE58AE7EE077A38EE068AC7ED006ABC
:104DC800E8EE087A85ED007A17EE900A84ED008AFD
:104DD800FBF77AFB41EC100B01F0AEFA51EC100B2B
:104DE800FBF7BEFED7ED006A07EE900A86EEA77ABB
:104DF800BDEC088BD6ED006A87ED007A86EEA77ABF
:104E0800D5ED006A86ED007A86EEA77AD4ED006AC1
:104E180085ED007A86EEA77A84ED007AF8BD026007
:104E28000A601A6087E700BFDB0F4940000034437F
:104E3800A4020020AC0200205C000020A802002090
:104E4800B0020020980200209C020020A00200204E
:104E5800600000200000000008B52DED088BF0EE82
:104E6800409AB0EE420AF0EE41AAB0EE61AAF0EE26
:104E7800428AB0EE609A01F0DBF9B0EE40BAB0EECB
:104E88004A0A01F015FAB0EE408AB0EE680A01F05D
:104E98000FFA28EE098AF0EE408A28EE288AB0EE4A
:104EA8004A0A01F0C5F9ABEE298A60EE2A7AB0EE1B
:104EB80040AAA8EEE78A68EEAA8A18EE100AE9EE78
:104EC8000A8AFBF701FB624B41EC1B0BC3E90001AB
:104ED80018EE900AFBF7F8FAC9EE897A5D4BC3E938
:104EE800000141EC1A0B17EE900AFBF7EDFA41ECC2
:104EF800100B00F0EDFF002251EC100B564BFBF7A6
:104F080037FB4FA3D3E90023FBF75CFCFBF728FE34
:104F1800524BF5EEC09AF1EE10FA07EE900A1860BF
:104F280004DBB5EEC09AF1EE10FA0FDCF5EEC09A8C
:104F3800F1EE10FA27D5B5EEC09AF1EE10FA23DBA0
:104F48009FED477A77EE877AC3ED007AB5EEC08A8F
:104F5800F1EE10FA2AD5B0EE4B1AF0EE6B1AB0EE5D
:104F68004A0AF0EE6A0A01F0E5F937A3D3E900230B
:104F780051EC100BFBF7FCFA0B46374902460020B0
:104F8800FBF742F92DE004D8B5EEC09AF1EE10FA1D
:104F9800D6D4F5EEC09AF1EE10FAD7DBB5EEC09A8A
:104FA800F1EE10FAD2D89FED2F7ACBE737DDF5EE88
:104FB800C08AF1EE10FA1BD5B0EE4B1AF0EE6B1A60
:104FC800B0EE4A0AF0EE6A0A01F0B4F953EC102B7D
:104FD80010EE100A03F100411BA3D3E90023FBF7ED
:104FE800C7FAFBF7BDFD204B1860BDEC088B08BD68
:104FF800FBDDB0EE4B1AF0EE6B1AB0EE4A0AF0EE9B
:105008006A0A01F097F910A3D3E9002351EC100BB9
:10501800FBF7AEFA02460B4600201449B0E7B5EE9E
:10502800408AF1EE10FAE0D1F5EEC08AF1EE10FAFE
:1050380003D50F4A0C4B1A60D7E7D6DD0D4AF9E7BE
:10504800182D4454FB2109406666666666A64C40E6
:10505800600E0020500E002000806640580E002090
:10506800000034430000B4435C0E0020008076400A
:105078000000B44200008743334BD3ED007A334B32
:1050880093ED006A324BD3ED006A324B70B593ED65
:10509800000A26EE007A2DED048BA7EEA67A0446C8
:1050A8000D4620EE668A77EE078AA7EE868A1646B0
:1050B80026EEA67A27EEA75A38EE088A60EE005A3E
:1050C80077EE459AF7EE004A66EE060A79EEE59A1B
:1050D800B4EEE48AF1EE10FA79EEA09A31DCFFEE34
:1050E800004AB4EE648AF1EE10FA48BFB0EE648A62
:1050F80027EE800A37EE057AA6EE260A37EE657A9D
:1051080030EE000A77EE600A01F0C8F99FED129AB6
:1051180020EE090A86ED000AB0EE480A01F066F9A9
:1051280020EE090AF0EE690A85ED000AB0EE680A79
:1051380001F0B4F920EE090ABDEC048B84ED000AF5
:1051480070BDB0EE648AD3E7A4020020AC02002050
:105158005C000020A8020020E02E654208B501226C
:1051680007490848FDF736FD012207490748FDF7BA
:1051780031FD00F0B9F8BDE80840FDF7C5BE00BF35
:10518800A60E002014100020D70E0020D40F0020F7
:1051980038B51D4A036893420DD11C4B1878FEF7A9
:1051A800EFF808B1FDF796FE184919480122BDE845
:1051B8003840FDF70FBD174A934223D1164B1749C4
:1051C8001A780F2A04BF01230B600B68012B144BBC
:1051D8000BD11D6813486C1C182C1C60425504D157
:1051E800007E58B952B91A600A601A68192A05DD92
:1051F8000D490A6801320A6000221A600122064934
:105208000A48D4E738BD00BF00480040D70E002048
:10521800D40F002000100140A60E0020B802002084
:10522800BC0200206B0E0020B402002014100020E5
:10523800014B1868704700BF980E002010B50F4C3E
:1052480024880CB1AC3C04800D48006808600D4906
:10525800096811600C4A12681A600C4B1A68029BA4
:105268001A600B4B1A68039B1A600A4B1A68049B56
:105278001A60094B1A68059B1A6010BD880E002039
:10528800D00E0020CC0E0020A00E0020840E00209E
:10529800900E0020980E0020E40E00207FB5094BE8
:1052A8000493094B0393094B0293094B0193094B50
:1052B8000093094A094B0A490A4800F049F807B01F
:1052C8005DF804FBE40E0020980E0020900E0020EC
:1052D800840E0020A00E0020D00E0020CC0E00204E
:1052E800880E00206B0E0020104A136801331360EB
:1052F8000F4A1368013313600E4A136801331360B1
:105308000D4A1368013313600C4A136801331360A4
:105318000B4A1368013313600A4A13680133136098
:10532800094A136801331360704700BF6400002006
:10533800680000206C00002070000020740000202D
:10534800780000207C000020800000200000000081
:105358002DE9F84F93468A4A8A4E8B4DDDF82890FE
:10536800DDF82C809A4643781380884B1C68837834
:1053780003F00703237013880B80854A8378138012
:10538800844B1968C37803F03F030B70B2F90030FF
:10539800DB101380037933807F4B1968437903F05E
:1053A80001030B70C378B6F900109B0943EA810327
:1053B80033807A4B4179198079490C68817901F0F9
:1053C8000F012170B3F90010764C491019808379C8
:1053D8002B80754B1968C37903F07F030B70B5F9FF
:1053E80000301B112B80037A2380704B1968437A95
:1053F80003F003030B70C379B4F90010DB0943EA27
:10540800410323806A4B417A19806A490F68817A7F
:1054180001F01F013970B3F90010891019800C9B35
:105428001960654B817A19806449C07A09680870E7
:10543800B3F90070B2F900007F111F8040F2E13328
:10544800984249DDC0F5E260033007EE900AF8EEB5
:10545800E77A17EE900AFBF737F841A3D3E9002360
:10546800FBF786F80B46564902460020FAF7CCFEB1
:10547800FBF776FBCBF80000B6F90000B0F5677FC4
:105488003BDCA0F5677007EE900AF8EEE77A17EEB6
:10549800900AFBF719F834A3D3E90023FBF768F85F
:1054A800FBF75EFBB5F90030CAF80000B3F5966F5C
:1054B8003ADD0123C9F80030B4F90030B3F5966F2E
:1054C8003CDD0123C8F80030B7F5487F40DD0023F4
:1054D8000D9A1360BDE8F88FAC3807EE900AF8EE25
:1054E800E77A17EE900AFAF7EFFF21A3D3E9002332
:1054F800FBF73EF80022324BB8E7C0F5E260033014
:1055080007EE900AF8EEE77A17EE900AFAF7DCFF52
:1055180019A3D3E90023FBF72BF802460B4600201A
:105528002749FAF771FEBBE7B3F5487F01DD002391
:10553800C0E7642BC0DD4FF0FF33BBE7B3F5487F0E
:1055480001DD0023BEE7642BBEDD4FF0FF33B9E772
:10555800642FBFDD4FF0FF33BAE700BFAFF3008021
:105568007F805AB16433AC3FBB7CEBC37AA3AE3FB8
:105578005BE443F57B07AC3F6CEBA7FFACF9A93FB5
:10558800F20E0020FA0E0020000F00206400002018
:10559800020F0020680000206C000020F40E00209C
:1055A80070000020F60E0020740000207800002013
:1055B800F00E00207C000020F80E00208000002063
:1055C8000080464030B58BB0224B234D0024019417
:1055D8001A6B42F004021A631A6B02F00402019279
:1055E800019A02941A6B42F080021A631A6B02F055
:1055F80080020292029A03941A6B42F001021A6323
:105608001A6B02F001020392039A04941A6B42F097
:1056180002021A631B6B03F0020322460493284616
:105628002021049BFBF77AFE4FF40053059305A94C
:105638000A4B0B4806930794FBF796FD2023059326
:1056480005A901232846069307940894FBF78CFDC7
:105658000BB030BD003802400000024000002110AD
:105668000008024008B50D480D4BDFF83CE04FF448
:10567800804280E8084000238360C3600261436180
:105688008361C3610362FBF7C5FF28B14221054866
:10569800BDE8084000F0AEB808BD00BF080F002004
:1056A8000054004034770008801A06007FB502686D
:1056B800104B9A421AD1C02301931223029301235B
:1056C80003930323049304230DEB03010A48059372
:1056D800FBF74AFD00230093084B1A6C42F40012B2
:1056E8001A641B6C03F400130093009B07B05DF869
:1056F80004FB00BF00540040000402400038024090
:1057080030B595B02A4B002100911A6C42F08052B6
:105718001A641B6C03F080530093009B254B019186
:105728001A6842F440421A601B6803F4404301932C
:10573800019B012307934FF4A02308934FF48003A0
:1057480002240E930425B42307A80D940F951093F3
:10575800119412941394FCF76BFC00B1FEE7FCF76C
:1057680023FB00B1FEE70F2302934FF4A0530490EC
:10577800059305214FF4805302A803940693FCF780
:105788004FFB044600B1FEE7FCF7E4FB4FF47A73E5
:10579800B0FBF3F0FBF7AEFC2846FBF7C1FC224652
:1057A80021464FF0FF30FBF765FC15B030BD00BF58
:1057B800003802400070004008B5FBF709FCFFF70D
:1057C8009FFFFFF7FFFE00F0A3F900F0C1F900F01A
:1057D8007BF9FFF747FF00F0F3F800F08FF8FDF7CB
:1057E8007DFE0348FCF742FEFDF79AFEFCE700BF8A
:1057F800980F0020FEE7000013B5224B0024009408
:105808005A6C42F480425A645A6C02F48042009204
:10581800009A01941A6C42F080521A641B6C03F0CF
:10582800805301930720019BFBF712FC2246214677
:105838006FF00B00FBF71EFC224621466FF00A00B2
:10584800FBF718FC224621466FF00900FBF712FC13
:10585800224621466FF00400FBF70CFC2246214645
:105868006FF00300FBF706FC224621466FF00100AB
:10587800FBF700FC224621464FF0FF30FBF7FAFB0E
:1058880002B010BD0038024008B5FBF7BBFBBDE80D
:105898000840FBF752BC00000148FDF7FBB900BF08
:1058A800141000200148FDF7F5B900BFD40F0020FF
:1058B8000F49D1F8883043F47003C1F888300D4B94
:1058C8001A68002042F001021A6098601A6822F0F3
:1058D800847222F480321A60074A5A601A6822F4E5
:1058E80080221A60D8604FF000638B60704700BF59
:1058F80000ED00E000380240103000240B480C494D
:1059080008B544F2506380E80A0042F2107200239E
:105918008360C2600361FCF7D3FE28B18C2105487F
:10592800BDE80840FFF766BF08BD00BF980F00201C
:1059380000440140597700080368114A934282B035
:105948000DD1002300930F4B5A6C42F002025A64A7
:105958005B6C03F002030093009B02B070470A4A95
:105968009342FAD100230193064B5A6C42F4003259
:105978005A645B6C03F400330193019BEDE700BFAD
:105988000004014000380240004401407FB502682D
:10599800094B9A420DD14FF470730193022302937D
:1059A80000230393049301A9032304480593FBF7F9
:1059B800DBFB07B05DF804FB00040140000802406F
:1059C80010B53E483E4A052380E80C0094B00023F9
:1059D8004FF224428360C26003614361FCF770FEAA
:1059E80018B142213748FFF705FF14A94FF4805337
:1059F80041F8483D3148FCF745FD18B14821314888
:105A0800FFF7F8FE2D48FCF775FE18B14D212D481B
:105A1800FFF7F0FE00236946284800930193FCF73E
:105A28003BFF18B154212748FFF7E4FE0022602409
:105A380006A9224806940792089209920A920B92A4
:105A48000C92FCF7A1FE18B121461E48FFF7D2FEC2
:105A5800042206A91948FCF797FE18B165211948D0
:105A6800FFF7C8FE082206A91448FCF78DFE18B1F6
:105A78006A211448FFF7BEFE0C2206A90F48FCF75E
:105A880083FE18B16F210F48FFF7B4FE00234FF4CF
:105A980000520DA909480D930E930F93109311937B
:105AA80012921393FCF71AFF18B17B210548FFF7F0
:105AB800A1FE0248FFF76AFF14B010BD5C0F00207A
:105AC80000040140597700080D480E490E4A08B5F0
